:1000000014C323C35FC321C320C31FC31EC31DC3A7
:100010001CC31BC31AC319C34FC317C316C3AED522
:1000200080A83FD300408D142000A1C8DA1281CFF0
:10003000D9F1DB40A4A6AF101411FF190C1AFF155B
:100040000A0E190E16151113FF0B1613FF130F12BC
:10005000FF181615FF110D170AFF0F0E0AFF21E0FA
:10006000462008401C4823E420107FF880048004C8
:100070007FF80E191D1F1E20C04003050A9468302A
:1000800050880F1E387E1C3860406CFEFEFE7C38A7
:1000900010000000F010204080F03E5149453E0025
:1000A000427F400042615149462141454B3118147D
:1000B000127F1027454545393C4A494930017109AD
:1000C00005033649494936064949291E7E11111151
:1000D0007E7F494949317F494949367F0101010104
:1000E000603E213E607F4949494177087F08777F1C
:1000F0001008047F7F08142241603E01017F7F02C7
:100100000C027F7F0808087F3E4141413E7F09097C
:1001100009063E41414122474848483F7F48480040
:100120007F000015020502F501E501CD01B901A12D
:1001300001910185017501690161013D01E0080638
:100140000000000C007D0B050000000C00060F05F0
:100150000000000E008F140500E61B0600000000E2
:1001600000FA003200000000006501380015015A55
:10017000000000000041033C0057043600820630B6
:1001800000000000002B025100CA024D00000000D8
:1001900000D000540000002800B2007E00000000E3
:1001A00000C60137006501460015015A00E3006EE4
:1001B000001501900000000000F4013C0080014E99
:1001C0000026016600E300DC00000000004D013C59
:1001D0000000001E004D013C0000001E00070198B9
:1001E00000000000007102400041033C00E20430C6
:1001F0000000000000A001300038014000FA007843
:1002000000000000002B022D0000001400650162B8
:10021000000000000015012000000000002F8001F8
:10022000F410400208263FFC6421400284210000B3
:1002300084220000441C0000381800001850000000
:100240000A200000042000000440000002700000AA
:100250000E40000002600000064000000220000086
:10026000045FFFFFFA18000018200000044000009F
:10027000024000000240000002400000024001C0B5
:10028000024002200240022002400220022001C05F
:100290000418400218107FFE0827C003E403C007BB
:1002A0008004200840081FF02008000020080000FB
:1002B000200400004008000020080000201000007A
:1002C00010100000100C000060100000100800006A
:1002D000201000001018000030050001400200004E
:1002E0008002000080040000400400004004000080
:1002F00040040380400204408001844300023FF830
:100300008003C0078000600C009012010FE1010023
:1003100001008002010001010001010001008002D2
:1003200000800201000101000101038100E28E0052
:100330004FE4003018003800C803080C08101C20D7
:10034000E4400440048E0891309088889040E02179
:10035000001E00380026002180206070104E0840EA
:1003600004400420E21912221212220E0401080095
:10037000F000600C009012010FE1012009009012C2
:10038000010001010001010821008002008002013A
:1003900002810101C10110D100E00E004FE40030E4
:1003A000182F8001F410400208263FFC642140020F
:1003B0008421000084220000441C00003818000042
:1003C0001850F0078A21080844210808444000001A
:1003D00002600000064000000260008006400948FC
:1003E00002200630045800001A18000018200000EF
:1003F0000440000002400000024080010240400230
:100400000240C0030249400292478001E2400000DE
:100410000220000004100000082C7FFE340380013D
:10042000C02F8001F410400208263FFC64214002E6
:100430008421000084220000441C000038180000C1
:100440001850F0078A213809C4213809C441F80F2F
:10045000C261F80FC640F00782600080064009487C
:1004600002200630045800001A180000182000006E
:1004700004400000024000000240800102404002AF
:100480000240C0030249400292478001E24000005E
:100490000220000004100000082C7FFE34038001BD
:1004A000C003C0078004200840089FF220084004D1
:1004B000200900012004C006400800002008F01EAA
:1004C00020113827101108211018000030100000EA
:1004D000101800003010000010080920200406C089
:1004E0004002000080020000800440044004200814
:1004F00040041010400490124002600C8001800300
:1005000000013FF90000C0060003C0078004200876
:1005100040089FF220084004200900012004C00682
:10052000400800002008F01E20113827101138273D
:100530001019F83F3010F01E10180000301009207C
:10054000100806C0200400004002000080024004A1
:100550008004200840041010400490124004600CF5
:10056000400200008001800300013FF90000C00646
:100570000000600C009012010FE1012009009012B0
:1005800001000101000101044100882200901201D4
:10059000028101010101000100E00E004FE4003082
:1005A0001800600C009012010FE101200900901268
:1005B000010001011831012C5900BC7A0098320168
:1005C000028101010101101100E00E004FE4003032
:1005D000180007E0000008100000100800002004C8
:1005E000000040020000400200004C0200009201A6
:1005F0000000920100008C01000100018001000256
:100600008001000580010002800100058001000AD0
:10061000800180158000802B0000805D000040AAD2
:100620000000395C00000FF0000011241FBECFE570
:10063000D2E0DEBFCDBF21E0A0E6B0E001C01D9258
:10064000AD30B207E1F73FD0C4CCDACC8827B19BFC
:100650008395B39B8260B49B84600895CF92DF92B0
:10066000EF92FF92C0906B00D0906C00E0906D0014
:10067000F0906E0085E690E08CD180916B009091B7
:100680006C00A0916D00B0916E008C159D05AE05BB
:10069000BF0539F0809160008F5F823338F480931A
:1006A0006000FF90EF90DF90CF900895109260006F
:1006B00085E690E0A2D3F5CF8F9381E0809364002C
:1006C0008F911895189580E890E00FB6F89486BD44
:1006D00096BD0FBE87B3857E87BB88B38A6188BB12
:1006E00016DBC2D485E690E0BDD3811103C085E658
:1006F00090E02AD110927A0010926100109262006C
:10070000F894A89584B7877F84BF81B5886181BD3F
:1007100081E681BD789485E690E020D697DF8093CE
:10072000630094DFC0916300C095C8238093630089
:100730008093890080917300843001F510926100EC
:100740001092620080917A008230A9F4C03029F0C2
:1007500041E061E085E690E05BD264E185E690E00F
:1007600014D385E690E0FAD58FE39CE90197F1F781
:1007700000C00000D6CFC1FFF0CFEACFC030C9F033
:100780001092610010926200C0FF05C041E060E07D
:1007900085E690E03DD2C1FF05C041E061E085E61D
:1007A00090E036D2C2FF05C041E062E085E690E00D
:1007B0002FD280916400803019F0109264004EDFD7
:1007C0008091770081113CC080917300803009F4E2
:1007D00037C08330A9F1E2D38AB780628ABF85B37C
:1007E0008A6185BB8BB780628BBF85B7877E80614E
:1007F00085BF85B7806285BF85B7846885BF8B7FDD
:1008000085BF7894889585B78F7D85BF8BB78F7DA1
:100810008BBF85B3857E85BB19DFC0916300C09512
:10082000C8238093630080938900C11168C08091C0
:100830006400803009F475CF109264000FDF71CF2F
:1008400085E690E0A8D285E690E088D501E210E048
:100850008FE39CE90197F1F700C00000F7DEC0913B
:100860006300C095C8238093630080938900C030E3
:10087000D1F01092610010926200C0FF05C041E00B
:1008800060E085E690E0C4D1C1FF05C041E061E0D1
:1008900085E690E0BDD1C2FF44CF41E062E085E64D
:1008A00090E0B6D13ECF80917300843009F439CF07
:1008B00090916400911135CF0150104049F690910C
:1008C0007700911107C0803009F42BCF833009F0F5
:1008D00082CF27CF8150823008F023CF80916100F2
:1008E0009091620086579D4F8093610090936200C3
:1008F00080349F4108F415CF109277006CCFC0FF71
:1009000005C041E060E085E690E082D1C1FF05C00E
:1009100041E061E085E690E07BD1C2FF05C041E0A7
:1009200062E085E690E074D110926100109262005E
:1009300037D3F7CE97FD04C0853691051CF4089592
:1009400080E0089584E60895FC0186E2DF011D92AF
:100950008A95E9F784E1818380E582838AE5838350
:1009600084E6848382E3828713861486158682E078
:10097000818B81E0828B828F138E84E3848F20E4CD
:10098000258F168E28E2278F10A29FEF93A385A3B1
:100990000895A0E0B0E0EEECF4E0BCCAEC018E8576
:1009A00081110CC08989803031F08150898BCDB79D
:1009B000DEB7E9E0CBCA81E08E87F9CF982F93505C
:1009C0009230A8F3CE80DF80E884F9849FEFC91AC3
:1009D000D90AE90AF90ACE82DF82E886F9861D8102
:1009E00012FD03C0823009F045C08C2D8F7390E05A
:1009F000A0E0B0E010979040804021F48B810196F8
:100A000099DF8B83E894C7F8D12CE12CF12CC11429
:100A1000DC04EC04FC0429F4898190E001968ADF6F
:100A200089838B81853520F01B7F1D8381E08E8734
:100A30008881813008F089C08E819F81A885B98521
:100A4000823C9140A040B04020F081E0888386E065
:100A500060D99C819111A8C08E85833019F08AE0FD
:100A600058D9188A83E08E878D818B7F8D8381E0B2
:100A70008A8B9DCF8C2D8F7190E0A0E0B0E0109715
:100A80009040804079F40A818981019653DF8983FF
:100A9000802F8150990B4EDF8A838B818150990B77
:100AA00049DF8B838981B82E0A81853528F400318E
:100AB00018F08B81803110F58C2D8F7090E0A0E0C4
:100AC000B0E0892B8A2B8B2B59F48C818150990BA8
:100AD00031DF8C838B2D8A3578F40531D8F022C034
:100AE0008B2D8A35F8F08C2D877090E0A0E0B0E077
:100AF000892B8A2B8B2BB1F411601D83053190F467
:100B00008FE0C822D12CE12CF12CC114DC04EC04C0
:100B1000FC0441F411FD06C012601D838AE08C8B39
:100B20008DE0F7D88D8180FF83CF8E818F7190E02B
:100B3000A0E0B0E0892B8A2B8B2B09F079CF8C8138
:100B40008150990BF7DE8C8373CF71F48E819F8176
:100B5000A885B985803C984AA040B04008F479CF78
:100B600082E0888387E074CF823009F072CF8E8173
:100B70009F81A885B98580349D49A440B04008F480
:100B800068CF8A859B85AC85BD8580359105A1059B
:100B9000B10530F44F97A040B04020F083E0E1CFA2
:100BA00084E0DFCF85E0DDCF8A89803009F4FFCE95
:100BB0001E85113009F0FBCE8881803009F4F7CE14
:100BC00080918C008F5F8C3158F480938C0010E002
:100BD00080918B008F5F843268F480938B00E7CE26
:100BE00010928C008A81823390F39F3180F388E0E9
:100BF00090D8EECF10928B001111D9CE8981853516
:100C000020F48A81853108F0D2CE89E082D8CFCE17
:100C10001F93CF93DF93EC01411107C0613009F4BA
:100C20001B8ADF91CF911F9108959A8981E08A8B69
:100C30008E85911106C08111F4CF198A81E08E87CB
:100C4000F0CF8030D1F3833051F4613051F78B898C
:100C50008F5F8B8B833028F3CE0176DEE2CF82303C
:100C600049F46130F1F68D818B7F8D836E878BE047
:100C700050D8D7CF843019F4CE0119D8D2CF8D8176
:100C8000982F937079F094E02F85291708F01F862C
:100C900061110AC08F85811101C0892F81508F8712
:100CA00081E0E6CF93E0F0CF623031F48F858F5F43
:100CB0008917A8F380E0F3CF613009F0B2CF9881B3
:100CC000911103C082E08C8BEBCF1F85123009F4A9
:100CD00050C0B0F411112CC089818951990B2ADEC2
:100CE00089838A859B85AC85BD850196A11DB11D33
:100CF0008A879B87AC87BD8783E08C8B82E0B8CFE7
:100D0000133009F08ECF8C7F8D838C8190E00F960D
:100D100011DE8C838A859B85AC85BD850196A11DDE
:100D2000B11D8A879B87AC87BD871C8B85E0A0CFD0
:100D3000CE01AAD52A853B85220F331F220F331FF0
:100D40004E815F8124273527BC01622773278217D4
:100D5000930761F0962F872F9A8F8B8F6370633084
:100D600009F460E0CE01B9D583E082CF80E091E064
:100D7000F3CF9B819F3110F09EE19B8384608D8334
:100D800082E08E878C8B84E073CFFC012685243033
:100D900009F4D5C50895FC018685843061F083305F
:100DA00059F480898C3110F48F5F808B8489803076
:100DB00011F08150848B08959289911102C08111A4
:100DC000FACF808991E08927F0CF282FE82FF92FDB
:100DD00080E047E09E2F921B961708F008959191AE
:100DE000892798E0382F330F87FF05C0832F84278A
:100DF0009150C1F7EFCF832FFBCFA1E1B0E0E2E04C
:100E0000F7E08FC8FC0184E5898381E08A838081D3
:100E10008B8381818C8382818D8383818E83848186
:100E20008F83858188878681898787818A87808566
:100E30008B8781858C8782858D8783858E87848546
:100E40008F878585888B60E1CE010196BEDF898B17
:100E500041E150E060E070E0CE01019699D86196E2
:100E6000E2E07BC8A1E1B0E0E7E3F7E057C88C011E
:100E7000AD0160E070E0CE0101967AD889818435B9
:100E800029F0F12C8F2D6196E5E064C8FA808F2D52
:100E90008130B9F760E1CE01019697DF9989891316
:100EA000F0CFC80151DD8B81F80180838C81818373
:100EB0008D8182838E8183838F81848398859583BE
:100EC00049855A856B857C85468357836087718702
:100ED0004D855E856F8578894287538764877587DE
:100EE000811104C083E0F8018687CCCF81E0FBCF7D
:100EF000B8980895B89AC0980895BA980895BA9A7B
:100F0000C2980895F5DFF9DF85E08A95F1F70000D2
:100F1000F1DF85E08A95F1F70000F1CFCF93DF9301
:100F2000D82FC8E0D7FF1CC0E3DF85E08A95F1F732
:100F30000000E3DF85E08A95F1F70000E0DFDD0FD8
:100F4000C15081F7D5DF85E08A95F1F70000D5DF44
:100F500085E08A95F1F70000D2DFDF91CF91089507
:100F6000C9DFE3CFC7DF85E08A95F1F70000C5DF71
:100F700085E08A95F1F70000BBDF85E08A95F1F7FF
:100F800000000895CF93C82FBDDF88E7C7DF80E05A
:100F9000C5DF8C2FC3DFE6DFCF9108958EEAF2CF55
:100FA0008FEAF0CFCF93DF93D82FC62FABDF88E740
:100FB000B5DF80E0B3DF8D2F8770806BAFDF8C2FC4
:100FC0008F70ACDF8C2F82958F708061A7DFCADFB6
:100FD000DF91CF910895FF920F931F93CF93DF93EB
:100FE000F82E192F062F8EDF88E798DF80E496DF32
:100FF000CF2DD12F0C0F1D2F111DC017D10729F494
:10100000B1DFCDB7DEB7E5E0A5C7899187DFF5CFC2
:10101000CF93DF93EB0160E0C5DF60E8CE01DBDF5B
:10102000DF91CF910895A0E1B0E0E8E1F8E075C765
:10103000FE013196DF0180E11D928A95E9F700E01B
:10104000FE2EEF2E60E0802FADDF18E060E18F2DE7
:101050009E2DC1DF1150D1F7802F8F5F082F883070
:1010600089F76096E6E075C7CF93DF9388B3856014
:1010700088BB8FE798E321E0815090402040E1F762
:1010800000C000003FDF88E749DF80E047DFCEE1B6
:10109000D0E0FE01849142DF219680E0C733D8077B
:1010A000C1F760DFC0DFDF91CF910895CF93260FA6
:1010B0003327331F70E0C1E0480F5527551F6217D3
:1010C000730714F4683010F0CF910895AC2F062EFA
:1010D00001C0AA0F0A94EAF7982FE92FF0E09417BD
:1010E00015061CF06F5F7F4FEACF97FDFBCFE357EC
:1010F000FF4FB081BA2BB0839F5FEFCFA0E0B0E08D
:10110000E3E8F8E000C7882E3B01142F2701822F67
:1011100090E00796887F846095958795E8F7C82EBC
:10112000A12FB52FE12CF12C3A2F311B301720F0D5
:10113000CDB7DEB7E0E103C7A034B10520F01196CA
:10114000E80EF91EF1CFAD01487F446055954795F3
:10115000E8F78412F4CFAD01477031E001C0330FDE
:101160004A95EAF7F201EE0DFF1DD12CDC1439F39C
:10117000A490A11439F1BD2CBB0CBB0CBB0CB3016A
:101180006B0D711D40E050E0CB2DC40FC217D0F4A1
:10119000C0E8D0E0042E02C0D695C7950A94E2F7C5
:1011A000CA2149F06038710530F4EB01C357DF4FB5
:1011B0009880932A98824F5F5F4F6F5F7F4F4830D0
:1011C000510511F7D3943196D1CF0F93CF93A82F18
:1011D000B62F602F70E0822F90E076D6C29630E076
:1011E00084369105B0F550E090E0BA01687F646004
:1011F00075956795E8F7A61324C081E0BA0167707A
:1012000001C0880F6A95EAF7C92FCB7F07E1283123
:1012100009F00FE6E0E07E2F7F5FC03041F0E03064
:1012200031F00E1721F0E31748F4721738F4EB0F82
:10123000F0E0E357FF4F6081682B6083E72F2713AF
:10124000EACF9F5F4F5F5F4F953079F6CF910F9157
:101250000895845690403F5FC3CFA0E0B0E0E2E342
:10126000F9E055C6E82E8B015A01EB01C357DF4F59
:10127000822F90E065E070E027D686569F4FBD0133
:1012800041E050E0FB01E80FF91FF490A0E0B0E06E
:10129000FB01E00FF11F242F0A2E01C0220F0A9438
:1012A000EAF72F21D9F0E038F105C0F495012A0FB3
:1012B0003B1F6901D594C794D594C794D594C7941E
:1012C0004601EC100BC027706A0102C0CC0CDD1C7B
:1012D0002A95E2F738812C2D232B28831196A730ED
:1012E000B105C9F66F5F7F4F21966530710551F6E4
:1012F000CDB7DEB7ECE027C6CF92DF92FF920F9317
:101300001F93CF93DF93F82EEB016A018901F80157
:1013100024912F3F41F00F5F1F4FA601BE018F2D7B
:101320009CDF2696F4CFDF91CF911F910F91FF9014
:10133000DF90CF900895EF92FF920F93F901E48030
:10134000F5809181490F511D9081690F711D0381B5
:101350002281D4DE0F91FF90EF900895A2E1B0E0DA
:10136000E3EBF9E0D2C56C01FC018289811109C06F
:101370008685833031F0803021F010DE6296EEE019
:10138000E0C50EDE10E0EDE8F0E080E811928A950D
:10139000E9F7F6018685811109C0133009F068C0AC
:1013A00024E04CE362E082E281DE62C0833009F037
:1013B0006FC09089292F30E0A4E0EA2EF12CE91AC1
:1013C000F108EE0CFF1C81EEE8168FEFF8060CF426
:1013D0003FC0808140E150E0813011F048E050E0B2
:1013E0004E0D5F1D5A01220F227033274A01821AC7
:1013F000930A909522E090FF20E0A21AB30A813070
:1014000009F03FC0CE010D9608D5CE01079611D543
:10141000CE0101961AD5CE0107969C01A40166E281
:1014200070E0812F88DFCE0101969C01A5016AE35F
:1014300070E0812F80DFCE010D969C01A70160E353
:1014400070E0812F78DF89EEE8168FEFF80684F4DC
:101450002BE330E048E250E067E370E0812F4CDF9F
:1014600027E330E044E350E067E370E0812F44DF9E
:101470006DE870E0812FCCDD1F5F183009F083CF5D
:101480007DCF9E01235F3F4FA90160E088D4BDCF8F
:10149000843009F08BC0078920E0043610F0045630
:1014A00021E0F12C02C00A50F3940A30E0F741E049
:1014B00050E06EE670E0812FD0DE2F2D41E050E04D
:1014C00064E770E0812FC9DE202F41E050E06AE739
:1014D00070E0812FC2DEF6018589823029F5163051
:1014E00029F422E040E862E080E05ECF153009F0A8
:1014F000BFCF858D968D97FD13C08937910594F4E4
:1015000028E046E060E0D2DDF601878D90A167E03B
:10151000681B08970CF060E026E04CE082E144CFC5
:1015200080E0EECF88E7ECCF1130C9F58130E1F4EF
:10153000E12CF12CF60183A190E00E2C02C09595D0
:1015400087950A94E2F780FF08C024E04EE062E04D
:101550008E2D8295807F8F5FA9DD8FEFE81AF80AC4
:1015600088E0E816F10431F7F6018589811105C09C
:1015700023E048E164E085A199DDF601678D70A163
:1015800077FD76CFCB01887F846096958795E8F7C5
:1015900018136ECF677023E043E0858D05CF1730B9
:1015A00061F723E048E160E0848DE6CF8230B1F559
:1015B000808161E0811101C060E09E012F5F3F4F9B
:1015C000A901EDD3CE0101969C014AE050E060E311
:1015D00070E0812FB0DE62E9E62E60E0F62E08E0D2
:1015E00028E04DE050E067E470E0812F87DD28E0DF
:1015F00046E050E062E570E0812F80DD21E530E0DB
:101600004AE250E067E370E0812F76DEF601038165
:1016100020E748E368E0812FD8DD2ACF813009F048
:1016200027CF948956E0A52EB12C911103C048E034
:10163000A42EB12CF6018081258121FF93C090302A
:1016400009F490C09E012F5F3F4FB9010AD4CE012B
:1016500001969C01A50160E370E0812F6CDEF6012C
:1016600080818030D1F083818F31B8F432E9E32E6C
:1016700030E0F32E08E028E0A5014B5F5F4F67E400
:1016800070E0812F3BDDF6018381803130F428E06A
:10169000A50162E570E0812F31DDF601918184E6DC
:1016A000891B8F83828188878381898784818A8748
:1016B00022E7822E20E0922E3E0187E0680E711C08
:1016C000A12C740108E028E0A50160E070E0812F02
:1016D00015DDF30101913F014A2D4F5F28E16AE0DA
:1016E000812F73DD89E0A80EB11C88E0880E911C63
:1016F00084E2A816B10429F7F601858180FF08C0AD
:1017000029E430E040E050E06EE670E0812FF4DD47
:10171000F601858181FF18C09EE5E92E90E0F92E43
:101720000AE02EE04AE150E062E570E0812FE6DC5D
:10173000F6018489803041F02FE330E04AE250E046
:1017400065E270E0812FD8DDF6018785813099F060
:10175000823009F444C02DE430E0833079F02AE58A
:1017600030E03FC0F601608961709E012F5F3F4FFE
:10177000A90115D36CCF25E530E084E066E09BD36A
:10178000082FE0E8F0E0E81BF040F595E795FE2E25
:1017900044E350E0BF01812FAFDD82E30E5F0F0D08
:1017A000982F969596959695911315C0382F37706A
:1017B00091E001C0990F3A95EAF7392F9F2D925089
:1017C000E92FF0E0E357FF4F2191DF0123272E930C
:1017D0009F5F0913F9CF8F5F8D3311F749CE21E554
:1017E00030E083E0CBCFFC01878D90A1C5970897AF
:1017F00010F080E00895458D568D848D282F30E0BF
:10180000BA016D5F7F4F681771059CF3285E3F4FEB
:1018100081E0241735076CF30895CF93DF93EC0133
:101820008F899D8991112BC065E05FD38C5F9A8170
:10183000890F9927991F7ED88A832B812650330BD5
:10184000888D90E0880F991F281B390BC90172D829
:101850008B838F8986958F5F4A855B856C857D85B7
:10186000480F511D611D711D4A875B876C877D87FD
:1018700081E08E8784E08C8BDF91CF9108958B304F
:1018800008F08AE08A5FD3CFFC01828D938D0097A8
:1018900011F481E090E06DE67EE416D3875C9F4C06
:1018A000828F938F0895CF93DF93EC018C8D90E01E
:1018B0000C968D8F9E8F80E38F8F18A2CE01E4DF70
:1018C00080FF09C081E089A38FEF8AA381E08E8B1E
:1018D000DF91CF9108958FEFF6CFFC0184E08687EA
:1018E000633008F060E0658B178A108E118E828558
:1018F00093859F719062880F991FE8F7228D338D31
:101900008227932726813781822793272FEE8227EC
:101910002EEB9227828F938F84E3848F85A38FEFA2
:1019200083A381E0828B623041F42EE6258F168EF0
:10193000178E10A212A2868B0895CF01B4CF1F93E9
:10194000CF93DF93EC01898D803011F08150898F26
:101950002D89223029F13CA130FF0CC08C8D8530BF
:1019600048F084508C8F9E89911104C090E00C96B1
:101970008D8F9E8F32FF29C08C8D863630F58C5F1F
:10198000873608F086E68C8F9E8991111EC0845F91
:101990008D8F1E8E203009F494C0213009F491C03F
:1019A0008F89982F96959E5F963008F095E04D8D23
:1019B0005E8D491B50404D8F5E8F9DA1903009F484
:1019C00008C191509DA31AA220C1213008F097C0F0
:1019D0008E89813009F075C08DA1482F50E02D8D82
:1019E0003E8DBA01645F7F4FF9013296E617F70723
:1019F0000CF06BC0833008F468C082508DA389A1BD
:101A0000280F311D87FD3A95C9012D8F9E8F4AA160
:101A10002F8D38A1240F311D47FD3A952F8F38A304
:101A2000823091050CF05CC082E08D8F1E8E81E0CB
:101A300089A32950304028303040B0F42D8D3E8DA0
:101A40005DA1852F90E0B9016D5F7F4F651771052E
:101A50005CF04896821793073CF047FF05C080E191
:101A60008F8F18A281E08AA3CE01BDDE803091F075
:101A70008AA118167CF484E38F8F18A28FEF8AA3B3
:101A80008F898F5F8F8B8CE044D18F89843110F0E8
:101A9000CE01C3DE8F8D98A104973CF48F898F5FB0
:101AA0008F8B843130F1CE01B8DE8F8D98A18134D7
:101AB00090403CF0888D8F5F888F8330E8F0CE01B6
:101AC000ACDEDF91CF911F910895435F5F4F2417E4
:101AD00035070CF494CF863608F091CF8E5F8ECF09
:101AE0008C3790400CF4A5CF8BE78D8F1E8E8FEF37
:101AF0009FCFCE01D8DED9CFCE01D5DEE2CF09F01F
:101B00004FCF8E898130E9F689A14D8D5E8D480FCA
:101B1000511D87FD5A954D8F5E8F3AA18F8D98A1EB
:101B2000830F911D37FD9A958F8F98A342305105F1
:101B3000DCF442E04D8F1E8E29A38C309105E4F435
:101B40008CE08F8F18A281E08AA3CE014CDE80301A
:101B500009F4ABCF8AA118160CF0A7CF84E38F8FBE
:101B600018A28FEF8AA3ADCF4C37504034F34BE728
:101B70004D8F1E8E2FEFE0CF0E97099730F74BA1B8
:101B8000403019F38D8D9E8D807F88609695879566
:101B9000E8F7282F883008F027E081E001C0880F9F
:101BA0002A95EAF7242F282381F280958423932F06
:101BB0009195311101C091E08BA39AA38F898F5F1A
:101BC0008F8B8CE0A6D08BA18111BFCFCE0125DEFB
:101BD000BCCF9AA12F8D38A1911103C01216130604
:101BE000A4F4290F311D97FD3A952F8F38A31916AC
:101BF0009CF591509AA3911133C029303105D4F14D
:101C00009CE09DA32B31304074F5998D91113AC021
:101C10009A012D50304021313040A0F563E065D16C
:101C2000875F813108F080E185502F8D38A128171A
:101C300031050CF046CF188D1F5F188F8EE0898F0D
:101C4000CE0122DE8F7190E087599F4F8D8F9E8F3E
:101C5000133008F436CF33CF40FD02C091509AA321
:101C60002B3131053CF02AE12F8F18A29AA11916C9
:101C700064F6A9CE1216130644F21F8E18A21AA2F9
:101C80001DA2C3CF463F5F4F0CF01BCF8F5F8F8BE2
:101C90008CE03FD083E0898FCE01F6DD8F7190E03C
:101CA00087599F4F8D8F9E8F8F898C30D2CFFC01AB
:101CB0008589823059F4878D90A11816190684F011
:101CC00085A181110DC085E082A30895613041F4A2
:101CD000813031F49689913018F009F482E0868BD6
:101CE000089528EE33E0843F41E0940738F40097EC
:101CF00021F0880F991F0197F1F70895F9013197A5
:101D0000F1F7845F9140EFCFB998C19A0895FCCF65
:101D10000895A0E0B0E0EEE8FEE0FEC0982F9150FC
:101D20009D3008F038C0E82FF0E0EE0FFF1FEF5DA8
:101D3000FE4FE590F590E114FE0469F1DFB6F894EA
:101D4000F70105911591F701329685919591003033
:101D5000100751F40097E9F068EE73E0B5D0C1DFE9
:101D600084E0E80EF11CECCF0832110510F408E213
:101D700010E0EC01892B11F4C1E0D0E0B99A219771
:101D8000C19AC801AEDFC198C801ABDF2097B9F78F
:101D9000E7CFBADFDFBECDB7DEB7E7E0D9C0FA01E3
:101DA0006170823031F170F48130D9F06AE026E15F
:101DB00030E281ED95E01082618332832383848356
:101DC000958308958350833088F720E230E281E2E2
:101DD00094E0603081F360E020E230E281EA93E059
:101DE000EACF61110EC060E120E138E181EA95E0BF
:101DF000E2CF61110CC066E02AE130E289E095E0B3
:101E0000DACF60E120E138E181E795E0D4CF66E008
:101E10002AE130E281EA94E0CECFFC01108280E139
:101E2000818398E19283838381E793E08483958320
:101E30000895FC011082118280E182838FE0838308
:101E400083E593E0848395830895FC0180E180839A
:101E5000118282838FE0838385E393E0848395837B
:101E60000895FB018230E9F028F4813079F0AF0168
:101E700060E095CF982F93509330C8F7108211826D
:101E800080E2828383838DE192E008C0108280E14A
:101E9000818398E19283838385E093E084839583B3
:101EA0000895108286E0818380E282838AE18383C1
:101EB0008DE992E0F3CF002480FD060E660F11F04D
:101EC0008695D1F7802D08950024552704C0080E6B
:101ED000591F880F991F009729F076956795B8F3D9
:101EE0007105B9F7802D952F0895992778E0880F0F
:101EF000991F961708F0961B881F7A95C9F7809549
:101F000008952F923F924F925F926F927F928F929D
:101F10009F92AF92BF92CF92DF92EF92FF920F9378
:101F20001F93CF93DF93CDB7DEB7CA1BDB0B0FB682
:101F3000F894DEBF0FBECDBF09942A88398848883F
:101F40005F846E847D848C849B84AA84B984C884D5
:101F5000DF80EE80FD800C811B81AA81B981CE0FCC
:101F6000D11D0FB6F894DEBF0FBECDBFED010895B1
:101F7000DC01CB01FC01E199FECF06C0FFBBEEBB4B
:101F8000E09A31960DB20D9241505040B8F7089545
:101F9000DC01A40FB51F4150504040F0CB01840F2D
:101FA000951F2E9105D041505040D8F70895262F07
:101FB000E199FECF9FBB8EBBE09A01970DB202164E
:101FC00039F01CBA2DBB0FB6F894E29AE19A0FBE15
:061FD0000895F894FFCF14
:00000001FF
